:100908001408003F0006005B004F0066006D007D84
:100918000007007F006F141C00C000F900A400B09D
:0C09280000990092008200F8008000900E
:10088C00E4F530F531E4F530C3E530940A74809426
:10089C00805016E53025E02408F808E6F5907F64D2
:1008AC007E001208D9053080DFE4F530C3E53094C2
:1008BC000A7480948050CEE53025E0241CF808E6BC
:0D08CC00F5A07F647E001208D9053080DFA2
:1008D900D3EF9400EE940040257DFFEDD39400748E
:1008E90080948040031D80F37DFFEDD394007480D4
:0E08F900948040031D80F3EF1F70D51E80D247
:0109070022CD
:03000000020800F3
:0C080000787FE4F6D8FD758131020847CE
:10080C0002088CE493A3F8E493A34003F68001F26E
:10081C0008DFF48029E493A3F85407240CC8C333ED
:10082C00C4540F4420C8834004F456800146F6DFBC
:10083C00E4800B0102040810204080900908E47E3B
:10084C00019360BCA3FF543F30E509541FFEE493B1
:10085C00A360010ECF54C025E060A840B8E493A378
:10086C00FAE493A3F8E493A3C8C582C8CAC583CAA3
:10087C00F0A3C8C582C8CAC583CADFE9DEE780BE5B
:0109340000C2
:00000001FF
