:100918001408003F0006005B004F0066006D007D74
:060928000007007F006FD4
:10088C00E4F51DE4F51DC3E51D946474809480505B
:10089C00F2E4F51CC3E51C943C74809480503AE55A
:1008AC001D75F00A8425E02408F808E6F5A0C2803E
:1008BC007F017E001208E9D280E51D75F00A84E5FF
:1008CC00F025E02408F808E6F5A0C2817F017E003F
:0D08DC001208E9D281051C80BB051D80A912
:1008E900D3EF9400EE940040257DFFEDD39400747E
:1008F90080948040031D80F37DFFEDD394007480C4
:0E090900948040031D80F3EF1F70D51E80D236
:0109170022BD
:03000000020800F3
:0C080000787FE4F6D8FD75811D020847E2
:10080C0002088CE493A3F8E493A34003F68001F26E
:10081C0008DFF48029E493A3F85407240CC8C333ED
:10082C00C4540F4420C8834004F456800146F6DFBC
:10083C00E4800B0102040810204080900918E47E2B
:10084C00019360BCA3FF543F30E509541FFEE493B1
:10085C00A360010ECF54C025E060A840B8E493A378
:10086C00FAE493A3F8E493A3C8C582C8CAC583CAA3
:10087C00F0A3C8C582C8CAC583CADFE9DEE780BE5B
:01092E0000C8
:00000001FF
