:0A0915000808000E1111110A1B0062
:0D0908001208EF1208C3E4FF12092A80FE56
:1008EF007F011209207F021209207F0C1209207F3D
:0908FF00381209207F8002092053
:0A0920008FA0C2B012088CC2B222F0
:1008C3007F40120920E4F510AF10EF3395E0FEC32B
:1008D300EF9408EE64809480500D74082FF8E6FFBF
:0C08E30012092A051080E17F8002092024
:0A092A008FA0D2B012088CC2B222D6
:08088C00C2B1D2B27F027E006E
:10089400D3EF9400EE940040257DFAEDD3940074D8
:1008A40080948040031D80F37DF7EDD39400748021
:0E08B400948040031D80F3EF1F70D51E80D28C
:0108C2002213
:03000000020800F3
:0C080000787FE4F6D8FD758110020847EF
:10080C00020908E493A3F8E493A34003F68001F2F1
:10081C0008DFF48029E493A3F85407240CC8C333ED
:10082C00C4540F4420C8834004F456800146F6DFBC
:10083C00E4800B0102040810204080900915E47E2E
:10084C00019360BCA3FF543F30E509541FFEE493B1
:10085C00A360010ECF54C025E060A840B8E493A378
:10086C00FAE493A3F8E493A3C8C582C8CAC583CAA3
:10087C00F0A3C8C582C8CAC583CADFE9DEE780BE5B
:01091F0000D7
:00000001FF
