:10083600D3EF9400EE940040257DFFEDD394007431
:1008460080948040031D80F37DFFEDD39400748077
:0E085600948040031D80F3EF1F70D51E80D2EA
:010864002271
:10086500E4FDFCC3ED9FEE6480F8EC6480985016BF
:10087500758CFF758AD2D28C308DFDC28DC28C0DE0
:06088500BD00010C80DD46
:01088B00224A
:10080000758901C2A07B0A7A00D3EB941EEA64804A
:10081000948050F1D2A0AF03AE02120865C2A07F4F
:10082000687E011208657FE87E0312083674052B86
:06083000FBE43AFA80D35C
:0300000002088C67
:0C088C00787FE4F6D8FD758107020800B3
:00000001FF
