:1008AA00534D494C4500454E47494E454552494EE0
:0708BA004720434C554200AA
:10085C001208787BFF7A0879AA1208377FC0120831
:0C086C00CD7BFF7A0879B012083780FEBF
:100878007F011208CD7F021208CD7F0C1208CD7FB0
:09088800381208CD7F800208CD72
:0A08CD008FA0C2B0120800C2B222D0
:100837008B088A09890AAB08AA09A90A12089160D4
:1008470013050AE50A7002050914F9120891FF1247
:0508570008D780E22239
:0A08D7008FA0D2B0120800C2B222B6
:08080000C2B1D2B27F027E00FA
:10080800D3EF9400EE940040257DFAEDD394007464
:1008180080948040031D80F37DF7EDD394007480AD
:0E082800948040031D80F3EF1F70D51E80D218
:01083600229F
:030000000208C132
:0C08C100787FE4F6D8FD75810A02085C1F
:10089100BB010689828A83E0225002E722BBFE0265
:0908A100E32289828A83E4932298
:00000001FF
