:0C0987000A08C0F9A4B0999282F8809090
:090994007FF27E0512088C80F749
:10088C008E128F137C037DE81208FF74082FF8E694
:10089C00F5A0C280120954D280AE12AF137C007D39
:1008AC00641208FF7C007D0A1208FF74082DF8E61C
:1008BC00F5A0C281120954D281AE12AF137C007D17
:1008CC000A1208FF7C007D0A1208FF74082DF8E656
:1008DC00F5A0C282120954D282AE12AF137C007DF5
:1008EC000A1208FF74082DF8E6F5A0C28312095409
:0308FC00D2832282
:040954007F017E00A1
:10095800D3EF9400EE940040257DFFEDD39400740E
:1009680080948040031D80F37DFFEDD39400748054
:0E097800948040031D80F3EF1F70D51E80D2C7
:01098600224E
:03000000020800F3
:0C080000787FE4F6D8FD758113020847EC
:1008FF00BC000BBE0029EF8DF084FFADF022E4CCDD
:10090F00F875F008EF2FFFEE33FEEC33FCEE9DECA5
:10091F00984005FCEE9DFE0FD5F0E9E4CEFD22EDEB
:10092F00F8F5F0EE8420D21CFEADF075F008EF2F35
:10093F00FFED33FD4007985006D5F0F222C398FD26
:05094F000FD5F0EA22C3
:10080C00020994E493A3F8E493A34003F68001F265
:10081C0008DFF48029E493A3F85407240CC8C333ED
:10082C00C4540F4420C8834004F456800146F6DFBC
:10083C00E4800B0102040810204080900987E47EBC
:10084C00019360BCA3FF543F30E509541FFEE493B1
:10085C00A360010ECF54C025E060A840B8E493A378
:10086C00FAE493A3F8E493A3C8C582C8CAC583CAA3
:10087C00F0A3C8C582C8CAC583CADFE9DEE780BE5B
:010993000063
:00000001FF
