:0A08E90005088986C78C00010D0088
:1008BF008508A0C28012088CD2808509A0C281123F
:1008CF00088CD281850AA0C28212088CD282850B35
:0A08DF00A0C28312088CD28380D6D9
:04088C007F017E006A
:10089000D3EF9400EE940040257DFFEDD3940074D7
:1008A00080948040031D80F37DFFEDD3940074801D
:0E08B000948040031D80F3EF1F70D51E80D290
:0108BE002217
:03000000020800F3
:0C080000787FE4F6D8FD75810D020847F2
:10080C000208BFE493A3F8E493A34003F68001F23B
:10081C0008DFF48029E493A3F85407240CC8C333ED
:10082C00C4540F4420C8834004F456800146F6DFBC
:10083C00E4800B01020408102040809008E9E47E5B
:10084C00019360BCA3FF543F30E509541FFEE493B1
:10085C00A360010ECF54C025E060A840B8E493A378
:10086C00FAE493A3F8E493A3C8C582C8CAC583CAA3
:10087C00F0A3C8C582C8CAC583CADFE9DEE780BE5B
:0108F3000004
:00000001FF
