:100C7400010800010900010A00010B000A0CC0F977
:080C8400A4B0999282F880905F
:0D0C8D007FEC7E517DC07C40120A6380F335
:080A63008F198E188D178C16F7
:100A6B00E4FFFEFDFCAB19AA18A917A8161209067C
:100A7B0060224020E4FFFE7D207C41AB19AA18A91F
:100A8B0017A816120906500C750880E4FFFE7D7A34
:100A9B007C448068E4FFFE7D207C41AB19AA18A939
:100AAB0017A8161209064020E4FFFE7DC87C42AB56
:100ABB0019AA18A917A816120906500C750980E473
:100ACB00FFFE7DC87C428034E4FFFE7DC87C42ABD8
:100ADB0019AA18A917A81612090660324030E4FFAC
:100AEB00FE7D7A7C44AB19AA18A917A81612090621
:100AFB00501C750A80E4FFFE7D207C41AB19AA18BF
:100B0B00A917A81612080012097F8E1A8F1BAF1B8C
:050B1B00AE1A020B20E0
:040B20008E1C8F1D7B
:100B2400E4F51EC3E51E943C748094804003020BDC
:100B3400B4AE1CAF1D7C037DE8120A00740C2FF8C0
:100B4400E66508F5A0C280120C41D280AE1CAF1D30
:100B54007C007D64120A007C007D0A120A00740C79
:100B64002DF8E66509F5A0C281120C41D281AE1CB4
:100B7400AF1D7C007D0A120A007C007D0A120A0067
:100B8400740C2DF8E6650AF5A0C282120C41D282DB
:100B9400AE1CAF1D7C007D0A120A00740C2DF8E611
:100BA400650BF5A0C283120C41D283051E020B27EC
:010BB400221E
:040C41007F017E00B1
:100C4500D3EF9400EE940040257DFFEDD39400741E
:100C550080948040031D80F37DFFEDD39400748064
:0E0C6500948040031D80F3EF1F70D51E80D2D7
:010C7300225E
:10080000EC4D6011E8497017ED33EC3304600DE4F2
:10081000FCFFFEFD22E933E8330470F80209EB1215
:1008200009B658046009E4CC248150062850090216
:1008300009F52840030209F2C0E0EB4A7044B98090
:1008400006D0E0FB0209E1EF4E701CBD8008EBFF13
:10085000EAFEE9FD80EBE98DF0A4FEE5F00208E98F
:10086000E9CDF9EAFEEBFFEF89F0A4FCE5F0CE89D3
:10087000F0A42EFFE435F0CD89F0A42DFEE435F090
:100880008067EF4E7005BD80D780C3EF8BF0A4ACBE
:10089000F0EE8BF0A42CFCE435F0F8EF8AF0A42CF9
:1008A000E5F038FCE433CB8DF0A42CFCE5F03BF80C
:1008B000EE8AF0A42CFCE5F038F8E433CF89F0A4FC
:1008C0002CFCE5F038CF3400CE89F0A42FFFE5F002
:1008D0003EFEE433C98DF0A42EFEE5F039CD8AF05A
:1008E000A42FFFE5F03EFEE43DFD33D0E0FB5007D2
:1008F0000BBB000F0209F5EC2CFCEF33FFEE33FECF
:06090000ED33FD0209CDFC
:1009060074F8CC6480CCC86480C8F58204604FC398
:10091600EB9FF5F0EA9E42F0E99D42F0E89C45F037
:10092600603C501DE5825FFFE582D313CB5BCBF4C1
:100936002B5582FB50280ABA002409B900200880EA
:100946001DE5825BFBE582D313CF5FCFF4C3132F84
:100956005582FF50090EBE00050DBD00010CC3EB0C
:100966009FF5F0EA9E42F0E99D42F0E89C45F06072
:0909760007CC4820E701B3EC2294
:10097F00EDD2E7CD33EC3392D524814006E4FFFE70
:10098F00FDFC22FCE4CFCECDCC24E0501174FF80CF
:10099F00EDC3CC13CCCD13CDCE13CECF13CF04706C
:0709AF00F030D5DE020A550D
:1009B600E9D2E7C933E833F892D5EDD2E7CD33EC87
:0709C60033FC5002B2D52200
:1009CD00EC30E7100FBF000C0EBE00080DBD00048B
:1009DD000BEB6014A2D5EB13FCED92E7FD2274FF37
:1009ED00FCFDFEFF22E480F8A2D574FF13FC7D8090
:0309FD00E480EFA4
:03000000020BB53B
:0C0BB500787FE4F6D8FD75811E020BFC71
:100A0000BC000BBE0029EF8DF084FFADF022E4CCDA
:100A1000F875F008EF2FFFEE33FEEC33FCEE9DECA3
:100A2000984005FCEE9DFE0FD5F0E9E4CEFD22EDE9
:100A3000F8F5F0EE8420D21CFEADF075F008EF2F33
:100A4000FFED33FD4007985006D5F0F222C398FD24
:050A50000FD5F0EA22C1
:0E0A5500C3E49FFFE49EFEE49DFDE49CFC22B2
:100BC100020C8DE493A3F8E493A34003F68001F2B1
:100BD10008DFF48029E493A3F85407240CC8C33335
:100BE100C4540F4420C8834004F456800146F6DF04
:100BF100E4800B0102040810204080900C74E47E14
:100C0100019360BCA3FF543F30E509541FFEE493F8
:100C1100A360010ECF54C025E060A840B8E493A3BF
:100C2100FAE493A3F8E493A3C8C582C8CAC583CAEA
:100C3100F0A3C8C582C8CAC583CADFE9DEE780BEA2
:010C8C000067
:00000001FF
